:020000040800F2
:1000000000500020DD5900082D5A0008314E00082C
:1000100000000000000000000000000000000000E0
:100020000000000000000000000000002D5A000841
:1000300000000000000000002D5A00082D4E0008AE
:100040002D5A00082D5A0008B54900082D5A0008FD
:100050002D5A000891420008BD420008E9420008FC
:10006000000000002D5A00082D5A00082D5A0008E3
:100070002D5A0008994600082D5A00082D5A0008EC
:100080002D5A00082D5A00082D5A000800000000C3
:100090002D5A00082D5A00082D5A00082D5A000824
:1000A0002D5A00082D5A00082D5A00082D5A000814
:1000B0002D5A00082D5A0008000000000000000022
:1000C0000448054B10B5834203D0044B002B00D0ED
:1000D000984710BD2C0200202C02002000000000D8
:1000E00006480749091A8B10C90FC91810B54910DD
:1000F00003D0044B002B00D0984710BD2C020020E9
:100100002C0200200000000010B5074C2378002BC3
:1001100009D1FFF7D5FF054B002B02D0044800E0C2
:1001200000BF0123237010BD2C020020000000003E
:1001300088130108054B10B5002B03D0044905486E
:1001400000E000BFFFF7CCFF10BDC046000000007C
:10015000300200208813010870B50C4D0C4E761B40
:10016000B61005D0002408CD01349847A642FAD134
:1001700011F00AF9074D084E761BB61005D0002481
:1001800008CD01349847A642FAD170BD804C0108D1
:10019000804C0108804C0108844C010830B5032ACA
:1001A0000CD903000B439B0719D103680C68A342C9
:1001B00015D1043A04300431032AF6D8551E002A1A
:1001C0000BD0002303E05A1C9D4206D01300C25CF2
:1001D000CC5CA242F7D0101B00E0002030BD551EC1
:1001E000EFE7C046F0B5C64600B50F2A41D9032750
:1001F0000D003E0005430C0003002E402F423DD170
:100200001500103D2D09A8462D01AC4684442768F1
:100210001D001F6067685F60A7689F60E768103413
:10022000DF6010336545F2D145460F230C240135BC
:100230002D01491913404519144222D08C59AC5153
:1002400004369C1B032CF9D8043B9B0801339B000C
:10025000ED18C91803231A40561E002A06D00023A1
:10026000CC5C1A00EC5401339642F9D180BCB846FC
:10027000F0BD0500561E002AF1D1F7E70500561E15
:10028000EDE71A00F6E7C046F0B50500830749D050
:10029000541E002A45D003000326CAB202E00135ED
:1002A000013C3ED301332A703342F8D1032C30D9BC
:1002B000FF220A40150215432A0415430F2C34D996
:1002C0002700103F3F093E01B4461E001A001036B9
:1002D0006644156055609560D5601032B242F8D121
:1002E00001373F01DB190F270C22274022403C0039
:1002F000002A0ED03E1FB608B400A4461A001C1DEA
:10030000644420C2A242FCD103240136B6009B19EA
:100310003C40002C05D0C9B21C19197001339C4215
:10032000FBD1F0BD03001400C0E72700E2E7C046A0
:10033000114B70B51C680500A36B002B03D0002285
:100340001D615A6170BD182000F0CEF9031EA06334
:100350000CD00A4A00210260094A4260094A8260C0
:100360000B228281012018615961E8E700224221B5
:10037000054B064800F074F9000000200E33CDABA9
:1003800034126DE6ECDE0500B04B0108C84B0108E5
:10039000184B70B51D68AC6B002C0ED020696169DC
:1003A000154A164B02F07EFA0122002312184B4127
:1003B000580040082261636170BD182000F094F974
:1003C000041EA8630FD00E4B012203600D4B436047
:1003D0000D4B83600B238381002302614361074837
:1003E0000A4A064BE6E700224E21094B094800F075
:1003F00037F9C046000000202D7F954C2DF4515850
:100400000E33CDAB34126DE6ECDE05002E7F954C3D
:10041000B04B0108C84B010808B410B504009DB0EA
:10042000002A31DB822368469B0083820291069179
:10043000002A14D00123013A5B42C382049220AB0C
:10044000079220001F9A02A9019300F019FB431C98
:1004500001DA8B2323600023029A13700FE001233B
:100460005B42C382049220AB079220001F9A02A92C
:10047000019300F005FB431C01DA8B2323601DB0C0
:1004800010BC08BC01B018478B2303600120404218
:10049000F5E7C0460CB410B51E4B9CB01C68002993
:1004A00032DB82236A469B009382029006900029E9
:1004B00014D0012301395B42D38204911FAB079111
:1004C00020001E9A02A9019300F0DAFA431C01DA17
:1004D0008B2323600023029A137010E001236A46E5
:1004E0005B42D38204911FAB079120001E9A02A9A0
:1004F000019300F0C5FA431C01DA8B2323601CB082
:1005000010BC08BC02B018478B2301202360404276
:10051000F5E7C04600000020024670B50A43920786
:100520002AD11E4DEE0104C808C9541B944334401F
:1005300017D0D0B2D9B2401A2106014310D190B2DF
:1005400099B2401A210401430AD110021902000A8B
:10055000090A401A2102014302D1100E190E401A55
:1005600070BD9A42DFD010BA19BA884201D9012071
:1005700070BD0020C04370BD02780B78013001319E
:10058000002A09D09A4207D102780B780130013154
:10059000002A01D09A42EFD0D01A70BD01010101AA
:1005A00010B583070AD00300032102E001330B4298
:1005B00005D01A78002AF9D1181A10BD030019685D
:1005C0000C4A0D4C8A188A4322420FD15968094AB5
:1005D00004338A188A43224208D15968054A0433F1
:1005E0008A188A432242F1D000E001331A78002AA7
:1005F000FBD1E1E7FFFEFEFE8080808010B50400A5
:100600001300094A9AB01068084A009405920292B1
:10061000074A049403920A00694600F031FA002365
:10062000009A13701AB010BD00000020FFFFFF7F7A
:100630000802FFFF00B59BB00091049106490591A7
:10064000029106490391694600F01AFA0023009AC4
:1006500013701BB000BDC046FFFFFF7F0802FFFF05
:1006600030B514001A000A4B05001B6885B0D86825
:10067000002C09D0074B019300912B0006490294EE
:1006800000F020F800F0ACFF044B1C00F3E7C0467C
:1006900000000020FC4B01080C4C0108084C01082C
:1006A000130010B50022FFF7DBFFC0460CB400B505
:1006B00083B004AB04CB019300F038FB03B008BC5B
:1006C00002B018470EB400B582B003AB0100054874
:1006D00004CB0068019300F029FB02B008BC03B012
:1006E0001847C0460000002010B5034B01001868F1
:1006F00000F06EF810BDC0460000002010B5034B9E
:100700000100186800F004F810BDC0460000002089
:1007100070B50500002915D00C1F2368002B23DBC2
:10072000280001F06DFC294A1368002B05D0A34274
:100730000BD92168601883422DD0636028001460B3
:1007400001F060FC70BDA34210D81A005B68002B5A
:10075000F9D1106811188C4219D030D363605460FD
:10076000280001F04FFCEDE7E418D9E711685018B4
:10077000A04217D023D8216860188342EED11868B0
:100780005B6884466144216063605460E8E72368E5
:1007900018181060E4E718685B68844661442160BB
:1007A0006360CBE720680918501811608342D7D1E5
:1007B00018685B688446614411605360D0E70C237D
:1007C00028002B6001F01EFCBCE7C0464802002058
:1007D000F8B50323CD1C9D43083506000C2D27D208
:1007E0000C25A94226D8300001F00AFC284F3A68AF
:1007F000002A27D0140004E063682200002B21D0D7
:100800001C0023685B1BF7D40B2B17D8636894423A
:1008100035D05360300001F0F5FB200007220B308B
:10082000231D9043C21A984207D01B1AA35004E01C
:10083000002DD6DA0C2300203360F8BD2360E418C5
:100840002560E7E77B68002B1BD02900300000F013
:10085000B9FD431C0CD00323C41C9C43A04205D00B
:10086000211A300000F0AEFD431C01D02560D1E715
:100870000C233000336001F0C5FB0020DDE73B6056
:10088000C8E70021300000F09DFD7860DDE7C0463C
:1008900048020020F0B5D6464F464646C0B58F68A0
:1008A00082460C0016001D009F423BD890228B8987
:1008B000D200134212D13D0008682A00310001F035
:1008C00049FBA3680020DF1B2368A7609C466544A2
:1008D0002560E0BCBA46B146A846F0BD0969226869
:1008E0006069521A914642001218D00F8218681C93
:1008F000521048449046904201D9804602005B0560
:1009000013D511005046FFF763FF071E21D04A465A
:100910002169FFF767FCA389134A13408022134320
:10092000A38107E01F000868C7E7504601F06CFB91
:10093000071E0AD0380043464A46484463619B1A62
:10094000276120602F00A360B7E750462169FFF7B9
:10095000DFFE0C235246136040220120A38940424F
:100960001343A381B5E7C0467FFBFFFFF0B54E46BA
:100970004546DE465746E0B5936883B00D00914684
:100980000190002B6AD0176808688C6843E09022B9
:10099000AB89D20013422ED02969421A9346686966
:1009A00042001218D00F8218701C52105844904602
:1009B000904201D9804602008020C000034236D018
:1009C00011000198FFF704FF041E52D05A4629690E
:1009D000FFF708FCAB89294A134080221343AB81FF
:1009E000434620005A462C61B046340058446B619F
:1009F0009B1A2860AB604246514601F0ABFAAB68E7
:100A000028681C1B4B469B6840449E1B4B46AC60B1
:100A100028609E6022D03B687E689A460837002E88
:100A2000F9D0A046B442B2D93400B046E3E7019809
:100A300001F0EAFA041ED3D1019C29692000FFF7D6
:100A400067FE0C2323604022AB8901201343AB8156
:100A50004A46002340429360536003E000234A4625
:100A60000020536003B0F0BCBB46B246A946A04686
:100A7000F0BD0C23019A1360E5E7C0467FFBFFFF42
:100A8000F0B5DE46574645464E46E0B51C008B891C
:100A900082468B4690469DB01B0603D50B69002B02
:100AA00000D1EDE0002304AD6B6120336B76103391
:100AB000AB7643461B787C4E0394002B74D044469F
:100AC00004E063780134002B00D17AE0252BF8D1C3
:100AD0004346E71A444500D077E02378002B63D0E3
:100AE0000122002352426A604432671C2B60EB6093
:100AF000AB60AB54AB6506E00123801B83402A68E2
:100B0000013713432B6005223000397801F0E8F9F2
:100B10000028F1D12B68DA0602D543222021A954FE
:100B20001A0702D543222B21A95439782A2958D1F2
:100B3000039A111D12680391002A00DA7CE0EA6032
:100B400079787C1C2E295FD0584B032218009846D8
:100B500001F0C6F9002807D04346C01A402383405D
:100B60002A68013413432B602178631C0622504805
:100B70009846297601F0B4F9002863D04D4B002B3C
:100B800053D003AB00935A46290050464A4B00E02D
:100B900000BF81464B46013306D06B694B446B6105
:100BA00043461B78002B8AD15B469B895B0600D5A8
:100BB00072E068691DB0F0BCBB46B246A946A046CB
:100BC000F0BD4346E71A4445EED03B004246594645
:100BD0005046FFF75FFE431CE6D06B69DB196B6183
:100BE0007BE70800303809280BD8EB689A00D31847
:100BF00079785B001B180800303801370928F5D9CF
:100C0000EB603C002E299FD161782A2924D1039BD7
:100C1000A01C1A1D1B6803926B60002B02DA0123D3
:100C20005B426B60A17804008EE70722039B0733C9
:100C3000934308330393B0E75242EA60022213431E
:100C40002B607DE703AB00935A46290050461A4BB0
:100C500000F074FA81469DE7080000233038013423
:100C60006B60092800D96FE79A00D31861785B00A0
:100C70001B180800303801340928F5D96B6063E788
:100C80004021FFF7A5FD5B4618601861002806D0DB
:100C900040235A46536105E7012040428AE70C236E
:100CA00052460138136085E73C4C0108444C01086A
:100CB000484C01080000000095080008936810B532
:100CC000013B9360002B04DA9469A34207DB0A29F5
:100CD00005D01368581C10600800197010BD00F092
:100CE00083FBFBE7F8B505000E00002B0DD01400C8
:100CF000D71802E00134BC4207D032002800217826
:100D0000FFF7DCFF431CF5D1F8BD0020FCE7C0462F
:100D1000936810B51400002B02D10020536010BD61
:100D200000F09AFE0023A3606360F8E7F0B5DE46AA
:100D300057464E464546E0B583468A4691461C00D6
:100D40009FB0002803D08369002B00D1ABE09E4BFD
:100D50009A4500D1ADE09D4B9A4500D1BBE09C4B3C
:100D60009A4500D12BE153469B891B0700D4A8E08C
:100D700053461B69002B00D1A3E0002306AD6B6135
:100D800020336B761033AB762F3B98464B46197861
:100D9000904E059400297AD04C460B0004E063780D
:100DA0000134002B00D19AE0252BF8D14B46E31AF1
:100DB00002934C4500D097E02378002B67D00122A6
:100DC000002352426A60443201342B60EB60AB6016
:100DD000AB54AB6506E04346801B83402A68013470
:100DE00013432B6005223000217801F079F80028A8
:100DF000F1D12B68DA0602D543222021A9541A0723
:100E000002D543222B21A95421782A2900D07DE044
:100E1000059A111D12680591002A00DAABE0EA601C
:100E20006178671C2E2900D184E06B4C03222000DE
:100E300001F056F8002806D04023001B83402A68A2
:100E4000013713432B6039787B1C0622634899468F
:100E5000297601F045F8002800D192E0604B002B84
:100E600000D178E005AB00935246290058465D4B0F
:100E700000E000BF0390039B013308D0039A6B6925
:100E8000944663446B614B461978002984D15346DC
:100E90009B895B061CD468691FB0F0BCBB46B24698
:100EA000A946A046F0BD00F0AFFD474B9A4500D0E3
:100EB00051E75B465B689A4653469B891B0700D502
:100EC00056E75146584600F005FB002800D154E78C
:100ED00001204042E0E75B469B689A4643E74B4669
:100EE000E31A02934C45D2D05B460027A3461C0070
:100EF00005E0029B0137BB4234D94B46D95D5246CF
:100F00002000FFF7DBFE431CF3D1C0E708003038B8
:100F100009280BD8EB689A00D31861785B001B187E
:100F20000800303801340928F5D9EB6027002E2954
:100F300000D07AE779782A292DD1059BB81C1A1D93
:100F40001B6805926B60002B02DA01235B426B6029
:100F5000B978070069E70722059B073393430833F5
:100F600005938BE723006A695C4694469B46029B87
:100F700063446B6120E75242EA60022213432B6014
:100F80004EE705AB0093524629005846154B00F03A
:100F9000D5F803906FE708000023303801376B6005
:100FA000092800D941E79A00D31879785B001B180B
:100FB0000800303801370928F5D96B6035E75B4602
:100FC000DB689A46CFE6C046F4160108D41601083D
:100FD000B41601083C4C0108444C0108484C010877
:100FE00000000000E50C000810B504001300034ADF
:100FF00010680A002100FFF799FE10BD00000020D4
:10100000F8B557464E46DE464546E0B51F000A9BFA
:10101000924699460A698B6806000C009A4200DAEB
:101020001A0053461A604323E35C002B02D051465A
:1010300001320A6021688A065ED553465246062070
:101040001B680233136021680A00084209D1E26874
:10105000D31A192293460022A34490460A00002B7B
:1010600042DC4323E35C591E8B4192060AD53020B3
:10107000E1184331087045215A1C615CA2184332C3
:10108000023311702200390030004332C847431C3C
:1010900019D0062322681340042B33D0A368226999
:1010A00093423DDD002188469B1A984400251A345E
:1010B00002E00135454533DA0123220039003000D2
:1010C000C847431CF5D101204042F0BCBB46B246A4
:1010D000A946A046F8BD01239C465346E2681B681A
:1010E000E044D51A454520DD01235A463900300039
:1010F000C847431CEFD1E6E706220A4212D05A1E27
:101100009341BFE753461968E3682269591ACB43F4
:10111000DB170B409846A3689342C5DC0029C5DC69
:101120000020D2E753461B6891E743232268E35C23
:10113000591E8B4192069AD4A4E7C046F0B54E469C
:10114000994643239C4657464546DE468C446346B3
:10115000E0B587B003930C00097E90460700109A13
:10116000002914D00B00583BDBB2202B4BD89248FF
:101170009B00C3589F462368190602D45B0600D51E
:1011800001E11368191D11601B6862691A60002370
:10119000039D23614B46210000933800434605AA76
:1011A000FFF72EFF431C1FD023692A004146380059
:1011B000C847431C18D023689B071ED5E3680598D1
:1011C0001A1A002A1BDD26000025193605E0E368FF
:1011D000059801351A1AAA4211DD01233200414651
:1011E0003800C847431CF2D10120404207B0F0BC90
:1011F000BB46B246A946A046F0BDE36805989842B2
:10120000F4DA1800F2E742232500E154413B42356D
:10121000236143230022E254BCE72368190602D469
:10122000590600D5BBE01168081D10600A68160059
:10123000002A75DB614B9B460A239A464DE02368E2
:10124000180602D45B0600D5A4E01368181D1060D0
:101250001E685A4B9B466F2900D1A7E00A239A4685
:1012600038E013682500191D11601A684223E25402
:10127000413B42352361CCE71368191D11601D689D
:1012800000212800626800F02BFE002800D190E0C9
:10129000401B60602061BCE7202321680B43236072
:1012A00045217820605446498B46190631D45906A9
:1012B0002FD51168081D0E881060DA0702D520228C
:1012C0001343236010239A46002E03D12268103363
:1012D0009A43226043230022E2546368A360002BF8
:1012E00048DB0422216891432160002E27D1002B86
:1012F00042D1039D5346082B31D0039B5B1B2361D6
:1013000048E745235821E15423682C498B461906A8
:10131000CDD51168081D10600E68CEE72368BFE7C1
:1013200043222D21A15462687642A260002A02DB8A
:10133000042293432360214B9B460A239A46039D34
:101340003000514601F09EF95B465B5C013D2B701D
:10135000330006005345F3D25346082BCDD1236802
:10136000DB07CAD5636822699342C6DC3023013D9E
:101370002B70C2E7002EE2D15B4625001A7842238B
:101380004235E254B6E713686169181D10601B68A6
:101390001980FCE61368181D1E88106059E7116853
:1013A000081D106000228E5E320041E708239A4635
:1013B00090E7606820612CE730160108504C010866
:1013C000644C0108002370B5064D040008002B6032
:1013D00001F09CF8431C00D070BD2B68002BFBD0A3
:1013E0002360F9E750020020F8B505000E00140054
:1013F000002802D08369002B29D02D4B9C422BD092
:101400002C4B9C4246D02C4B9C424ED0A369A360EF
:10141000A3891B0726D52369002B23D0FF2122682F
:10142000F7B20E406169D31A99422ADD0133A168EF
:101430000139A160511C2160177062699A422BD05A
:10144000A389DB0701D50A2E26D03000F8BD00F0B5
:10145000DBFA174B9C42D3D16C68A369A360A389C4
:101460001B07D8D42100280000F034F8002819D137
:10147000FF2123692268F7B20E406169D31A9942AD
:10148000D4DC2100280000F041F900280AD1012312
:101490002268CCE7AC68B9E72100280000F036F9F3
:1014A0000028D2D001267642CFE7EC68AEE7C046EE
:1014B000F4160108D4160108B4160108030010B58B
:1014C0000A00034908681900FFF78EFF10BDC046E7
:1014D000000000203E4B70B51D6806000C00002D7A
:1014E00002D0AB69002B1BD03A4B9C421ED03A4B2A
:1014F0009C424CD0394B9C4260D00C23E25EA389C5
:10150000190719D52169002921D0D80730D5002025
:10151000A06060694042A0610020002930D070BD09
:10152000280000F071FA2B4B9C42E0D16C680C2330
:10153000E25EA3891907E5D4D90641D55B0728D413
:10154000216908231A43A28193B20029DDD1A0208A
:1015500080258000AD001840A842D6D02100300080
:1015600000F038FC0C23E25EA3892169D807CED4B1
:1015700000209D0700D46069A06000200029CED122
:101580001B06CCD540231A43A2810138C7E7AC68BB
:10159000B3E7616B00290AD023004433994204D099
:1015A0003000FFF7B5F80C23E25E002363632423C9
:1015B0009A430023216963602160C2E7EC689CE7DD
:1015C00009233360402301201A43A2814042A6E749
:1015D00000000020F4160108D4160108B416010812
:1015E000062010B500F0CEFD012000F0A5FFC0469A
:1015F000F0B5C64600B58B8980460C001A0743D467
:101600004A68002A61DDE56A002D39D0424641462C
:10161000166800220A60DA045BD4012300224046E7
:10162000216AA847431C5FD0A389E56A5B0706D5FA
:101630006368C01A636B002B01D0236CC01A0023AF
:101640000200216A4046A847431C44D143461B6818
:10165000002B40D01D2B01D0162B4DD100236360F1
:10166000236923604346616B1E60002908D0230074
:101670004433994202D04046FFF74AF8002363639F
:10168000002080BCB846F0BD0E69002EF8D00A6874
:101690000E60951B00229B0700D14A69A260002DB5
:1016A00004DCEDE736182D1A002DE9DD2B003200A1
:1016B0004046216AA76AB8470028F3DC402201208F
:1016C000A38940421343A381DBE70A6C002A9ADC1A
:1016D000D6E7606DAAE70023636023692360A389CE
:1016E000DB04BFD56065BDE743461B68002B9BD07C
:1016F0001D2B06D0162B04D04022A3891343A381AF
:10170000BFE7434600201E60BBE7C0460B6970B5CB
:1017100005000C00002B16D0002802D08369002B96
:1017200015D00E4B9C4210D00D4B9C4212D00D4B4D
:101730009C4211D00C22A35E002B04D02100280073
:10174000FFF756FF00E0002070BD6C68F2E700F084
:101750005BF9E6E7AC68EDE7EC68EBE7F416010847
:10176000D4160108B416010870B5041E29D0036907
:10177000002B1DD0184B1D68002D02D0AB69002B2B
:1017800018D0164B9C420ED0154B9C421FD0154BC7
:101790009C421ED00C22A35E002B09D02100280001
:1017A000FFF726FF70BD6C680C22A35E002BF5D1FD
:1017B0000020F7E7280000F027F9084B9C42E3D10E
:1017C000F1E7094B0949186800F0E0FAEAE7AC686C
:1017D000E0E7EC68DEE7C04600000020F4160108F0
:1017E000D4160108B41601082C1601080D170008BC
:1017F0000020704710B5024900F0C8FA10BDC0467D
:101800000D1700080020704770B568254A1E554323
:101810000E0029007431FEF7DBFF041E09D00023FF
:101820002A00036046600C300021A0606832FEF799
:101830002BFD200070BDC046F0B5C646274B070003
:101840001E6800B5B369002B2AD004239846483699
:101850007368B468013B03D51DE06834013B1AD3BB
:101860000C22A55E002DF8D120001D4B082200217E
:10187000656625606560A560E36025616561A561B9
:101880005C30FEF701FD6563A563A564E564200097
:1018900080BCB846F0BD3568002D05D02E00D7E7D6
:1018A000300000F01FF8D0E7D62138004900FEF7DD
:1018B0008FFF041E0DD04346D022056025004360F3
:1018C0000C300021A0605200FEF7DEFC34602E00D8
:1018D000BEE70C2330603B60D9E7C0462C160108F8
:1018E0000100FFFFF0B5D6464F464646384BC0B51F
:1018F000836200238364C3640365364B82B01B6834
:1019000005000193984260D02800FFF795FF6860BA
:101910002800FFF791FFA8602800FFF78DFF6E6891
:101920000024E86004233000746634607460B4609E
:10193000F36034617461B461082200215C30FEF709
:10194000A3FC254B254F9A467362254B3763994676
:10195000B362244B3662F362AE6898463000224B85
:10196000746634607460B460F36034617461B4614F
:10197000082200215C30FEF787FC534673624B4619
:10198000B36243463763F3623662EE68174B30004A
:10199000F36008220021746634607460B4603461BE
:1019A0007461B4615C30FEF76FFC534673624B4662
:1019B000B3624346F362012336623763AB6102B020
:1019C000E0BCBA46B146A846F0BD012383619BE75F
:1019D000F51700082C160108FD22000895230008C1
:1019E00029230008692300080900010012000200F1
:1019F00010B5034B0349186800F0C8F910BDC04684
:101A00002C1601080D170008836910B5002B01D1B1
:101A1000FFF768FF10BDC0467047C0467047C0461C
:101A20007047C0467047C04610B5034B034918685D
:101A300000F08CF910BDC04600000020F11700082E
:101A400010B5034B0349186800F080F910BDC0467B
:101A50000000002005180008F0B5DE464546574650
:101A60004E46E0B5936883460C00904683B0002B49
:101A700023D08B891A0728D50A69002A25D0424627
:101A800016689A072DD50027AC4B00259946BA4613
:101A9000002D58D02B004D4500D9A84B5246584632
:101AA000216AA76AB847002858DD43469B688244EC
:101AB0002D1A181A43469860EAD1002003B0F0BCF2
:101AC000BB46B246A946A046F0BD21005846FFF7E6
:101AD00001FD002800D02DE14246A38916689A072F
:101AE000D1D4DA0742D4002200279146002F25D016
:101AF00080229200A568134200D180E0AA46BD4230
:101B000000D9AFE09022D200134200D0BBE02068A1
:101B10005246494600F01EFAA3685D1BA5603D00D1
:101B2000002723685344236043469B68A9445D1BF8
:101B300043469D60C1D0A389002FD9D13268776810
:101B400091460836D2E7336875689A4608369FE7AB
:101B500021000198FFF7DAFD00282FD00C22A35EA8
:101B6000402201201343A3814042A7E70023002223
:101B7000B14600271E005B46002092460193002FCD
:101B800027D000282FD03300BB469F4200D99B4668
:101B9000206822696369904204D9A2689D18AB4508
:101BA00000DD9EE05B4561DCA56A5246216A019832
:101BB000A847051ED2DD0120761BC9D043469B688D
:101BC000AA447F1B5D1B43469D6000D175E7002F33
:101BD000D7D14B461B689A464B465F6808239C4604
:101BE000E144002FF5D03A000A21504600F078F980
:101BF000002800D195E053460130C61AC3E720689B
:101C00002369984216D863699A46BB4212D84C4B56
:101C100038009F4200D94B48514600F037FD5346EB
:101C2000A56A43434A465846216AA847051E95DDE2
:101C30007F1B79E7BD4200D93D002A00494600F0EC
:101C400089F9A36822685B1B5219A3602260002BEC
:101C5000EED121005846FFF759FD002800D07DE75E
:101C60007F1B61E73D00BA46206851E75A4651465E
:101C700000F070F95A46A3685D469B1AA36023687A
:101C80005B44236097E7606922682169551A420026
:101C90001218D00F8218681C5210C0199246019574
:101CA000904201D9824602005B0529D511005846B1
:101CB000FEF78EFD051E37D0019A2169FEF792FAD4
:101CC000A389214A134080221343A3815246019BDA
:101CD0002561E818D31A3D00BA4620606261A3600E
:101CE00016E751462A0000F035F9236821005B19F8
:101CF00001982360FFF70AFD002800D15BE72DE77C
:101D0000584600F081F9051EE0D121695846FEF7DA
:101D1000FFFC80225946A3899343743A1BB20A60A0
:101D20001EE77B1C1E002FE70C235A4613600C2273
:101D3000A35E15E701204042C0E6C04600FCFF7FDD
:101D4000FEFFFF7FFFFFFF7F7FFBFFFFF0B5C64673
:101D5000483088460700002600B57B68BC685D1ED9
:101D60000CD4A389012B06D90E22A35E013302D025
:101D70002000C04706436834013DF2D23F68002F7F
:101D8000EBD1300080BCB846F0BDC046F8B5474640
:101D9000CE4680B5070080468946002648377B68D6
:101DA000BC685D1E0DD4A389012B07D90E22A35E4A
:101DB000013303D021004046C84706436834013D43
:101DC000F1D23F68002FEAD13000C0BCB946B0461E
:101DD000F8BDC046F0B58B8906000C0097B09A0795
:101DE00007D523004733236023610123636117B0C4
:101DF000F0BD0E22895E00292FDB6A4600F0F6FA5C
:101E0000002829DBF023019D1B021D401D4B9C4631
:101E100065446B425D418027FF0039003000FEF7CA
:101E2000D7FC002823D08021174AB262A289206003
:101E30000A43A28120616761002DD8D030000E23B3
:101E4000E15E00F0E7FA0028D1D00322A389934392
:101E500001221343A381CAE7A389002540271B065B
:101E6000D9D539003000FEF7B3FC0028DBD10C22B5
:101E7000A35E9A05BBD40322934302221343A3819A
:101E8000AFE7C04600E0FFFFF517000870B50C0093
:101E90001D000E23C95E160096B0002914DB6A46A9
:101EA00000F0A4FA00280FDBF022019B120213407D
:101EB0000A4A944663445A4253412B608023DB0014
:101EC0003360002016B070BD0C22A35E00222A6091
:101ED0001B06F3D540233360F3E7C04600E0FFFF65
:101EE00070B5CCB283070DD0531E002A0FD0032546
:101EF00004E00130284206D0013B08D30278A24218
:101F0000F7D170BD1300032B0CD8002B01D100209A
:101F1000F7E7C31802E001308342F8D00278A2420A
:101F2000F9D1EEE7FF2529400D0229430D04074EA4
:101F30000D43026806496A40511891433142E8D185
:101F4000043B0430032BF4D8DFE7C0468080808058
:101F5000FFFEFEFEF0B588420AD98B18984207D2E0
:101F6000531E002A03D0CA5CC254013BFBD2F0BD11
:101F70000F2A0BD80500561E002AF8D00023CC5C8F
:101F80001A00EC5401339642F9D1F0E703270D0013
:101F90003E0005430C0003002E402F422BD11500BC
:101FA000103D2D09AC462F013F1825681D6065685E
:101FB0005D60A5689D60E5681034DD601D0010332C
:101FC000BD42F2D165460F230C2401352D0149197C
:101FD00013404519144211D08C59AC5104369C1B46
:101FE000032CF9D8043B9B0801339B00ED18C9185A
:101FF00003231A40BFE70500561EBFE71A00BAE7E1
:102000007047C0467047C046F8B506000C00150082
:1020100000291BD0002A15D000F022FA2700A84280
:1020200001D33800F8BD29003000FEF7D1FB071EB0
:10203000F7D021002A00FEF7D5F821003000FEF786
:1020400067FBEEE7FEF764FB0027EAE71100FEF707
:10205000BFFB0700E5E7C046436C10B50400002B4A
:1020600001D0002010BD8021FEF7B2FB6064002883
:1020700006D002000023803208C09042FCD1F0E775
:1020800001204042EEE7C046F8B506000C001700FC
:102090001F2907D8456C002D09D0A4002D192868E8
:1020A0002F60F8BD1623036001204042F9E780212C
:1020B000FEF78EFB051E706407D0010003000022AE
:1020C000803104C38B42FCD1E7E701204042E8E7BE
:1020D00070B505000C001F2920D8436C002B0ED0D2
:1020E0008A009B181A68002A09D0012A14D0511CB2
:1020F0000ED00021200019609047002070BD2800FC
:1021000000F0F8F822000100280000F0DFF8F5E701
:10211000162303600120F1E70020EFE71623036098
:1021200001204042EAE7C04670B504000D001F29B7
:1021300025D8426C002A10D0A80012181368002B72
:1021400009D0591C19D0012B15D00021280011608D
:102150009847002070BD0120FCE78021FEF738FB86
:10216000021E60640BD0040003000020803401C311
:10217000A342FCD1E0E70320ECE70220EAE70120DC
:102180004042E7E7154B70B504001D681F281FD8B3
:102190006B6C002B0DD082009B181A68002A08D0A7
:1021A000012A13D0511C0DD0002119609047002046
:1021B00070BD280000F09EF822000100280000F009
:1021C00085F8F5E7162301202B60F1E70020EFE703
:1021D000162301202B604042EAE7C04600000020A1
:1021E000124B70B504000D001E681F2807D8706CD4
:1021F000002809D0A40004192068256070BD1623AA
:10220000012033604042F9E780213000FEF7E0FA18
:102210007064002807D0010003000022803104C34D
:102220009942FCD1E6E701204042E7E700000020A8
:102230000C4B10B51C68636C002B01D0002010BD46
:1022400080212000FEF7C4FA6064002806D0020056
:102250000023803208C09042FCD1EFE701204042C9
:10226000EDE7C04600000020174B70B505001C6864
:102270001F2826D8626C002A10D0A80012181368F4
:10228000002B09D0591C1AD0012B16D00021280090
:1022900011609847002070BD0120FCE780212000DC
:1022A000FEF796FA021E60640BD0040003000021C2
:1022B000803402C3A342FCD1DFE70320EBE7022016
:1022C000E9E701204042E6E700000020002370B566
:1022D000074D0400080011002B6000F0FFF8431CBC
:1022E00000D070BD2B68002BFBD02360F9E7C046FF
:1022F0005002002010B500F0E1F810BD70B50C00E0
:102300000E25495F00F0B6F8002803DB636D1B184B
:10231000636570BDA389024A1340A381F9E7C046F3
:10232000FFEFFFFF00207047F8B50C001F000C23E3
:10233000C95E05001600CB050AD40A4B32001940CD
:102340002800A1810E23E15E3B0000F029F8F8BDD2
:102350000E23E15E0022022300F06EF80C23E15E02
:10236000EBE7C046FFEFFFFF70B50C000E25495F9D
:1023700000F062F8431C06D08023A2895B0113435E
:10238000A381606570BDA389014A1340A381F9E769
:10239000FFEFFFFF10B50E23C95E00F015F810BD6A
:1023A00070B50400080011001A000023054D2B60D1
:1023B00000F0BAF8431C00D070BD2B68002BFBD096
:1023C0002360F9E750020020002370B5064D040099
:1023D00008002B6000F062F8431C00D070BD2B6831
:1023E000002BFBD02360F9E750020020002370B5DA
:1023F000074D0400080011002B6000F057F8431C43
:1024000000D070BD2B68002BFBD02360F9E7C046DD
:1024100050020020002370B5064D040008002B6018
:1024200000F054F8431C00D070BD2B68002BFBD08B
:102430002360F9E75002002070B504000800110085
:102440001A000023054D2B6000F050F8431C00D00B
:1024500070BD2B68002BFBD02360F9E750020020F1
:102460000B1F1B68181F002B00DB70470B58C01890
:10247000FBE7C04670B50400080011001A000023F5
:10248000054D2B6000F03AF8431C00D070BD2B685E
:10249000002BFBD02360F9E75002002058220120D6
:1024A000014B40421A607047500200205822012020
:1024B000014B40421A607047500200205822012010
:1024C000014B40421A607047500200205822024BD4
:1024D00000201A607047C046500200205822012098
:1024E000014B40421A6070475002002058220120E0
:1024F000014B40421A6070475002002058220120D0
:10250000014B40421A60704750020020044A030009
:102510001068002802D0C318136070470148FAE71A
:1025200054020020E81D002058220120014B4042A7
:102530001A60704750020020FEE7C04602B47146A0
:1025400049084900095649008E4402BC7047C046FC
:1025500002B4714649084900095C49008E4402BC36
:102560007047C04603B47146490840004900095A03
:1025700049008E4403BC7047002243088B4274D349
:1025800003098B425FD3030A8B4244D3030B8B4274
:1025900028D3030C8B420DD3FF22090212BA030C7D
:1025A0008B4202D31212090265D0030B8B4219D35E
:1025B00000E0090AC30B8B4201D3CB03C01A52417E
:1025C000830B8B4201D38B03C01A5241430B8B42C6
:1025D00001D34B03C01A5241030B8B4201D30B03AF
:1025E000C01A5241C30A8B4201D3CB02C01A5241D6
:1025F000830A8B4201D38B02C01A5241430A8B4299
:1026000001D34B02C01A5241030A8B4201D30B0281
:10261000C01A5241CDD2C3098B4201D3CB01C01A9B
:10262000524183098B4201D38B01C01A52414309A5
:102630008B4201D34B01C01A524103098B4201D393
:102640000B01C01A5241C3088B4201D3CB00C01A00
:10265000524183088B4201D38B00C01A5241430878
:102660008B4201D34B00C01A5241411A00D201469D
:10267000524110467047FFE701B5002000F0F0F826
:1026800002BDC0460029F7D076E7704703460B43EA
:102690007FD4002243088B4274D303098B425FD35B
:1026A000030A8B4244D3030B8B4228D3030C8B4287
:1026B0000DD3FF22090212BA030C8B4202D312126D
:1026C000090265D0030B8B4219D300E0090AC30B42
:1026D0008B4201D3CB03C01A5241830B8B4201D3EF
:1026E0008B03C01A5241430B8B4201D34B03C01AD8
:1026F0005241030B8B4201D30B03C01A5241C30A50
:102700008B4201D3CB02C01A5241830A8B4201D3C0
:102710008B02C01A5241430A8B4201D34B02C01AAA
:102720005241030A8B4201D30B02C01A5241CDD24F
:10273000C3098B4201D3CB01C01A524183098B429A
:1027400001D38B01C01A524143098B4201D34B0183
:10275000C01A524103098B4201D30B01C01A5241E6
:10276000C3088B4201D3CB00C01A524183088B426D
:1027700001D38B00C01A524143088B4201D34B0056
:10278000C01A5241411A00D20146524110467047C8
:102790005DE0CA0F00D04942031000D340425340CD
:1027A00000229C4603098B422DD3030A8B4212D38D
:1027B000FC22890112BA030A8B420CD389019211BF
:1027C0008B4208D3890192118B4204D389013AD0FC
:1027D000921100E08909C3098B4201D3CB01C01AD1
:1027E000524183098B4201D38B01C01A52414309E4
:1027F0008B4201D34B01C01A524103098B4201D3D2
:102800000B01C01A5241C3088B4201D3CB00C01A3E
:10281000524183088B4201D38B00C01A5241D9D256
:1028200043088B4201D34B00C01A5241411A00D2D7
:102830000146634652415B10104601D34042002BD3
:1028400000D54942704763465B1000D3404201B552
:10285000002000F005F802BD0029F8D016E7704707
:102860007047C046002B11D1002A0FD1002900D19A
:10287000002802D00021C943080007B4024802A181
:102880004018029003BDC046D9FFFFFF03B468465D
:1028900001B5029800F034F8019B9E4602B00CBCD2
:1028A0007047C046F0B5CE46474680B5070099460A
:1028B0003B0C9C4613041B0C1D000E0061460004DB
:1028C000140C000C45434B4360436143C0182C0C6F
:1028D00020188C46834203D980235B029846C44467
:1028E000494679437243030C63442D042D0CC918E7
:1028F000000440198918C0BCB946B046F0BDC046B6
:10290000F0B557464E464546DE46E0B504000D009C
:102910009246994683B08B4230D82DD049465046D6
:1029200000F0D8F829000600200000F0D3F8331A90
:102930009846203B9B4633D45A46534693404246E2
:102940001F00534693401E00AF423AD8AF4200D119
:1029500078E05B46A41BBD41002B00DA75E0002245
:1029600000230092019301235A46934001930123CF
:1029700042469340009328E08242CFD900220023B0
:10298000009201930C9B002B01D01C605D600098AD
:10299000019903B0F0BCBB46B246A946A046F0BDC3
:1029A000424620239B1A5246DA40414613004A46CB
:1029B0008A40170042461F43534693401E00AF42D1
:1029C000C4D900220023009201934346002BD9D0A2
:1029D000FB0772081A4346467B080EE0AB4201D162
:1029E000A2420CD8A41A9D41012024196D41002156
:1029F000013E24184D41002E06D0AB42EED9013ED7
:102A000024196D41002EF8D1009801995B460019F8
:102A10006941002B24DB2B005A464446D3402A0050
:102A2000E2401C005B461500002B2ADB26009E407E
:102A3000330026004746BE403200801A994100907C
:102A400001919FE7A342BCD883E74246202300219F
:102A50009B1A0022009101920122DA40019286E73E
:102A6000424620239B1A2A0046469A402300F34000
:102A7000444613432A00E2401C005B461500002B2D
:102A8000D4DA42462F002023260097409B1ADE40CE
:102A90003B003343CDE7C0461C2101231B04984271
:102AA00001D3000C10391B0A984201D3000A0839DF
:102AB0001B09984201D30009043902A2105C401896
:102AC0007047C0460403020201010101000000003A
:102AD0000000000010B5002903D1FFF7DDFF203012
:102AE00002E00800FFF7D8FF10BDC04610B5094C42
:102AF000200000F045FF0122FA21074B89001A70DF
:102B0000064B20009B88594300F068FF200000F02E
:102B1000BFFE10BD600300205C030020C403002042
:102B20001FB5214C03AB2268110E1970110C59709E
:102B3000DA70110A042299700092002265211000B7
:102B400003F033F9194B01281DD0194B02281AD074
:102B5000184B032817D0184B042814D005280FD180
:102B6000164B174A00939923164917485B0001F04A
:102B70004BFF164801F048FF2368013323601FBD57
:102B8000062807D1124B009399230D4A0D4911488D
:102B90005B00ECE70728EFD10F4B094A009399231C
:102BA00008490E485B00E2E7780300204817010857
:102BB0005F1701087517010888170108BB1701087E
:102BC000021D0108141701089B1701087F22010844
:102BD000D11701082717010810180108F01701087C
:102BE000F0B587B00F2304AD6B441900280003F043
:102BF000F9F8BA4CBA4B01283CD0BA4B022839D06C
:102C0000B94B032836D0B94B042833D005282ED130
:102C1000B74BB84A00939B23B749B84801F0F4FE7C
:102C2000200001F0F1FE69781C2900D94DE208006E
:102C3000FFF798FC2F0085018901B401BC01150242
:102C4000170219021B021D021F02210228022A027A
:102C50002C022E0230023D023F02410243024B028F
:102C60004B024B024B024B02450247024902062827
:102C700006D1A34B00939F4A9B239F49A148CDE7D0
:102C80000728D0D1A04B9B4A00939B499B239F4888
:102C9000C4E79F4801F0B8FE200001F0B5FE002017
:102CA0009C4902F09CFF8E4B012800D1AEE08D4B79
:102CB000022800D1AAE08C4B032800D1A6E08B4B60
:102CC000042800D1A2E0052800D09CE0884B894A66
:102CD0000093A2238849894801F096FE200001F064
:102CE00093FE00208C4902F05DFF7D4B012800D14E
:102CF0009FE07C4B022800D19BE07B4B032800D156
:102D000097E07A4B042800D193E0052800D08DE0AD
:102D1000774B784A0093A3237749784801F074FEF3
:102D2000200001F071FE7D4D0020290002F074FFAB
:102D30006B4B012800D18FE06A4B022800D18BE059
:102D4000694B032800D187E0684B042800D183E059
:102D500005287ED1664B674A0093A42366496748DD
:102D600001F052FE200001F04FFE2900002002F089
:102D700070FF5B4B012800D180E05A4B02287DD0C8
:102D8000594B03287AD0594B042877D0052872D1A3
:102D9000574B584A0093A5235749584801F034FE31
:102DA000200001F031FE5E4B0020197802F06EFF2A
:102DB0004B4B012874D04B4B022871D04A4B03284F
:102DC0006ED04A4B04286BD0052866D1484B494A3F
:102DD0000093A8234849494801F016FE200001F05D
:102DE00013FE002002F0B8FF3D4B012802D002285C
:102DF00065D13C4B0093AB233E4A3F49414801F02B
:102E000003FE200008E1062806D13D4B0093394A15
:102E1000A22339493B485FE7072800D061E73A4BD6
:102E2000344A00933449A223384855E7062806D18E
:102E3000334B00932F4AA3232F4932486EE70728CC
:102E400000D070E7304B2B4A00932B49A3232F4827
:102E500064E7062806D12A4B0093264AA423264974
:102E600028487DE7072880D1274B224A0093224932
:102E7000A423264874E7062806D1214B00931D4A57
:102E8000A5231D491F4889E707288CD11E4B194AE5
:102E900000931949A5231D4880E7062806D1184B41
:102EA0000093144AA8231449164895E7072898D197
:102EB000154B104A00931049A82314488CE70A4B7D
:102EC000032897D0094B042894D005282AD1084B11
:102ED000084A00930849AB23084890E77F2201087D
:102EE000481701085F1701087517010888170108BE
:102EF000BB1701081E1D0108141701089B170108C4
:102F0000D11701082717010810180108F017010848
:102F100027180108840300208C030020940300205C
:102F2000C40300206B4B062800D163E707282ED18D
:102F3000694B6A4A00936A49AB236A485FE76A486B
:102F400001F062FD5DE7694801F05EFD200001F0DF
:102F50005BFD674801F058FD200001F055FD654814
:102F600001F052FD200001F04FFDFFF7D9FD624C4A
:102F70006249200000F084FC614B20009988FA230C
:102F80009B00594300F02AFD200000F081FC6B46B5
:102F9000DB7B002B00D025E607B0F0BD594801F0DF
:102FA00033FD200001F030FD5748C9E7574801F0D4
:102FB0002BFD200001F028FD554F564D564E574B26
:102FC0003A002900300002F06DFF554B012829D04E
:102FD000544B022826D0544B032823D0534B0428AB
:102FE00020D005281BD1524B3C4A0093C6233C49B4
:102FF000504801F009FD200001F006FD39794E48E6
:1030000001F002FD2A784D494D4801F0FDFC0024F5
:103010002B78A34215D84B4801F0F6FCB7E70628F9
:1030200006D12C4B00932D4AC6232D494648E0E794
:103030000728E3D1284B294A00932949C623294868
:10304000D7E70F231C4204D1002C02D03D4801F0E9
:10305000DBFC315D3D4801F0D7FC0134D8E73C484A
:103060006EE73C486CE73C486AE73C4868E73C4808
:1030700066E73C4864E72B793B48002B00D05FE7CC
:103080003A485DE73A485BE73A4859E73A4857E734
:103090003A4855E73A4801F0B7FC200001F0B4FC8B
:1030A0002B79002B00D072E702F0AAFA6FE73548BF
:1030B00046E7354844E7354842E7354840E7354874
:1030C0003EE735483CE735483AE7354801F09CFC97
:1030D00097E6C046D1170108101801081E1D010807
:1030E00014170108F01701084418010861180108B5
:1030F0007F1801089B18010860030020ED2A0008D2
:10310000C4030020BA180108D8180108F2180108F1
:10311000580200205A030020680200205B030020B0
:10312000481701085F17010875170108881701087B
:10313000BB1701089B170108121901082C19010877
:103140003D190108121B0108271701085019010831
:103150005619010876190108A2190108C4190108B5
:10316000F2190108181A0108401A0108681A010822
:103170008A1A0108B81A0108E61A0108141B010886
:10318000411B01086C1B01088F1B0108B21B0108C1
:10319000D51B0108F11B0108191C01083E1C010880
:1031A000631C010837B501F06EFC01F07FFC274875
:1031B00001F02AFC264C200001F026FC00F094F9D6
:1031C00000F0D6F9234802F085FC01F05EFC1D21D9
:1031D000012000F0EBF801001F4801F015FC200071
:1031E00001F012FC8A2000F025F901001B4801F0D3
:1031F0000BFC200001F008FC002301A968460093A5
:10320000019300F035F90099154801F0FDFB20000D
:1032100001F0FAFB1348019901F0F6FB200001F0E0
:10322000F3FB02F0ADFC104B05001A78002A09D020
:1032300000220E481A7001F0E7FB200001F0E4FBC9
:10324000FFF76EFC280001F03BFDEAE77C1C01085B
:103250007F220108E12B0008AA1C0108C61C0108F6
:10326000E31C0108F31C01085C0300209B18010803
:10327000002010B5094C0021205600F0D1FF01209C
:1032800001F0F2FD00200121205600F0C9FF0120CD
:1032900001F0EAFD0122024B1A6010BD80030020FC
:1032A0007C03002070B5040000200A4D0021285640
:1032B00000F0B6FF0521012000F0DAFDFF2101201A
:1032C00000F0D6FD207000200121285600F0A8FF54
:1032D00070BDC0468003002013B56B46DC1D200086
:1032E000FFF7E0FF01232078184016BD10B501F06C
:1032F00033FB0400FFF7F0FF002801D1013010BDBF
:1033000001F02AFB034B001B1B689842F2D30020FC
:10331000F5E7C0467C03002010B5FFF7E7FF002863
:1033200011D00020084C0021205600F079FFB9216F
:10333000012000F09DFD00200121205600F070FFCB
:103340000122024B1A6010BD800300207C03002084
:1033500070B504000020134D0021285600F060FFD6
:103360009F21012000F084FDFF21012000F080FD5D
:1033700000042060FF21012000F07AFD2368000294
:1033800018432060FF21012000F072FD2368012115
:10339000184320600020285600F042FF0122024B13
:1033A0001A6070BD800300207C03002007B50B4B22
:1033B00008001970012100F015FE0A2001F054FDEB
:1033C000FFF756FF01A8FFF7C3FF054B019A002046
:1033D0009A4202D1FFF7A0FF01200EBD800300201A
:1033E0001328C20030B503780822DB433124DBB256
:1033F00059005DB223004B40DBB2002D00DBCBB2A5
:10340000013AD2B2002AF3D1427831245340082243
:1034100059005DB223004B40DBB2002D00DBCBB284
:10342000013AD2B2002AF3D18078C01A4242504108
:10343000C0B230BD13B50B4C2070012001F07AFEF4
:103440000222094901A8FCF7CDFE6B46002207497C
:103450009A712078032301AA01F072FE01A8FFF7F8
:10346000C1FF16BD81030020A01301082DF3000049
:1034700037B5050001200C0001F05CFE00236A4610
:1034800000939380134B14491878062301F058FEDB
:103490006846FFF7A7FF00281AD06B46D81CFFF735
:1034A000A1FF002814D06B466A46D97812881B7990
:1034B00052BA1B020B4391B2084A5BBA4A4308490D
:1034C000521352182A60074A9BB253435B1323607E
:1034D0003EBDC04681030020062C0000735500004D
:1034E0003850FFFFD430000030B51C4C89B02100AB
:1034F0004022002000F04EFD194D282229004020D6
:1035000000F048FD21002022684600F043F9210028
:10351000202220316846FCF741FE082204002900E1
:10352000684600F037F92900202268460831FCF788
:1035300035FE0443E4B2002C0DD00A4801F064FAD1
:10354000094C200001F060FA084801F05DFA200003
:1035500001F05AFAFEE709B030BDC04684030020EE
:10356000C4030020331D01087F220108531D0108F8
:1035700030B5244887B001F047FA234D280001F008
:1035800043FA224CE079A378627821780490A079FC
:1035900003906079029020790190E07800901C48B7
:1035A00001F032FA280001F02FFAE07BA37A627A68
:1035B000217A0490A07B0390607B0290207B019095
:1035C000E07A0090134801F01FFA280001F01CFA7D
:1035D000E27FA17F104801F017FA280001F014FAE9
:1035E0000E4C0F48217801F00FFA280001F00CFA78
:1035F000A1880C4801F008FA280001F005FA07B08C
:1036000030BDC046681D01087F22010884030020E8
:10361000791D0108BE1D0108031E0108C403002016
:103620004C1E0108731E0108F0B5CDB00D000CAAA8
:10363000140040350B784E781B0636043343CE78A1
:1036400033438E7804313602334308C48D42F1D1BE
:1036500010251127936B13261900F9418C46190088
:10366000F14166469B0A71404B401668516A5468A6
:1036700089195B1807262100F1418C4621000B3681
:10368000F1416646E408714061405B1801351364FE
:103690000432402DDED10368002702934368029C68
:1036A00003938368039E0493C36805930369069399
:1036B00043690699079383690893C36909930A9339
:1036C000089B0193079B0093059B0B93049B9C46CF
:1036D0000B230D000A00DD41053BDA416A400D0075
:1036E0001333DD412A4B55400CAADB59BA58043735
:1036F0009A18AA18019B009D8B430D406B40D2186D
:103700000A9B2500D3180A930D23DD4102222B00CA
:103710002500D54122005D401623DA41634655401D
:1037200062467340324023405340ED180A9A0B9B87
:10373000D318521965460B95019D0A9580256D0099
:10374000AF421DD1029DAA180260039A1419049A6F
:1037500044609619059A86606244C260069AD3183E
:10376000009A03619446079B019A5918089B41618E
:10377000634494468361099B6344C3614DB0F0BDCB
:10378000009DB446009126001900140001959FE7A2
:103790009C1E0108F0B59BB002AC16002200254B20
:1037A00001900F0023CB23C223CB23C2350003CBD0
:1037B00003C2F3000093B919491B3F2D34D8B50952
:1037C000AD017F19751B0AAE402200213000FCF7C5
:1037D0005BFD2A0039003000FCF704FD802373559F
:1037E000372D17D8009B20001BBA3100F363FFF779
:1037F0001BFF01980200203208CC1BBA190A037083
:103800004170190C1B0E8170C37004308242F3D1D9
:103810001BB0F0BD31002000FFF706FF4022002161
:103820003000FCF731FDDDE72000FFF7FDFE403DF5
:10383000C1E7C046A413010870B5040000F02AF9DE
:10384000012363720500266800F0ECF82818864210
:1038500003D200F0E7F82D182560206800F0ECF89E
:1038600070BD0000054A10B51368002B01D000217F
:10387000597243611060FFF7DFFF10BDEC030020B9
:103880000023036043600381C160036143617047AB
:1038900037B5040001A801F0EDF8002C0FD0184D49
:1038A0002A681300002B0ED1636823600123238153
:1038B000002A0CD100F0A8F82000FFF7D3FF01A8E0
:1038C00001F0DDF837BD9C42F9D05B69EAE700F012
:1038D000A9F82368C0182B6820601A689042EBD3BF
:1038E0005A695969002902D15C616161E7E7116891
:1038F000884202D913005269F3E75C616261DEE736
:10390000EC030020F8B500F087F8050000F07CF823
:103910001A4C2368002B15D01A00471B5269002A45
:1039200006D159691A72DA682160002A08D1FEE7C7
:1039300011680026B94201D949190E1A1660EDE73F
:10394000186990472368002B03D1206800280ED106
:10395000F8BD1D6800F066F88542F6D223685A6902
:10396000226000221A72DA68002AE9D1FEE7437A5F
:10397000002BEDD1FFF760FFEAE7C046EC03002023
:1039800037B5040001A801F075F8134D2B68002B22
:1039900001D0002C03D101A801F071F837BD00223D
:1039A0002272A3420FD1597A5C69914209D05A72AE
:1039B000944204D020002C60FFF73EFFEBE700F0BC
:1039C0005BF82C60E7E71A005B69002BE3D09C42B0
:1039D000F9D163695361DEE7EC03002070B505009F
:1039E000080000F053F804002800FFF7C9FF00F0BA
:1039F00051F8844200D204002C606C6070BD10B598
:103A000000F010FF10BD000010B5FFF7F8FF014BEC
:103A1000186010BDF0030020014B18687047C046C5
:103A2000F003002010B5FFF7EAFF024B1B68C01A35
:103A300010BDC046F003002070B50400FFF7F2FF90
:103A40000B4D0026241AAC4209D929002000FEF7AC
:103A500093FD290006002000FEF714FE0C00054B24
:103A600020001E6000F093FF00F092FE70BDC04683
:103A700030750000F403002010B500F0BFFE0022F6
:103A8000014B1A6010BDC046F403002010B500F0D1
:103A900089FF10BD03207047074A10B51368002B3B
:103AA00002D1FFF72FFF10BD013B0448136000F067
:103AB0006EFF00F06DFEF6E7F403002030750000A5
:103AC0007047000001220C4B196D0A431A6502224F
:103AD000196D1142FCD0094B094A1A60094A1A6053
:103AE00006225A60084A9A600722D9681142FCD11E
:103AF000064A1A607047C04600100240003000407D
:103B0000CCCC000055550000EE0F0000AAAA000022
:103B1000014B024A1A60704700300040AAAA000018
:103B2000F0B585B0012800D084E00225C0248026AD
:103B30007F4A804FD36A2B43D362D36A2B400193D1
:103B4000019B7D4B1968A14331431960196A3940C3
:103B500019629968794FA14321439960D968A143BB
:103B6000D960196841343940FF3421431960196A1A
:103B7000734C21401962996839408C46C0216446D3
:103B8000890021439960D9680F40DF6019686D4F43
:103B900039408C4680216446090121431960196A25
:103BA000694C21401962996839408C46C0216446AD
:103BB000090121439960D968802439408027D96060
:103BC000516B7F01394351638221536B49003B4064
:103BD0000093009B5D4BA4001A680A431A601A68A0
:103BE0005B490A401A601A685A490A401A601A6802
:103BF0005949AA431A601A6882431A601A680A402F
:103C0000042114431C605A688A435A601A6834318C
:103C10008A43110010220A431A601A68B2431A60DC
:103C20001A684E490A401A60402219680A431A600D
:103C300005B0F0BD0228FBD180213D4A484CD36A33
:103C400089030343D362D36A03400393039B3A4B34
:103C50001D68254029431960596A424D0D40A02135
:103C6000C90029435962C0219D6889032540294321
:103C70009960D9682140D96080211D683A4C890536
:103C8000254029431960596A384D29405962C0219D
:103C90009D688905254029439960D9682140802481
:103CA000D96019682406890089082143C024196055
:103CB000596A240609010909596299682143802437
:103CC0009960D968E40189008908D960916B214322
:103CD00091638221936B490023400293029B244B02
:103CE0001A680A431A601A6819490A401A601A6861
:103CF00018490A4001211A601A6882431A601A683A
:103D00008A4380211A601A6889000A431A605A6837
:103D1000FD39FF398A435A601A6834318A431100E9
:103D200010220A4380211A601A688A4377E7C04646
:103D300000100240FF0FFFFF00040050FFFCFFFFD8
:103D4000FFFFF0FFFFF3FFFFFFFF0FFF0030014019
:103D5000FF3BFFFFFFF7FFFFFFFDFFFFFFDFFFFF61
:103D6000FFFFCFFFFFF0FFFFFFFFFFCFFFFFFFF0E1
:103D700000380040012832D14021334A13688B4378
:103D80001360324A3249536B0B40C0215363314BAD
:103D90001A688A431A609A688A439A60DA688A4382
:103DA000110080220A43DA60C02218682A49920072
:103DB000084002431A609A680A409A60DA680A402A
:103DC000DA601A6825490A401A609A680A409A60BF
:103DD000DA681140802212010A43DA607047022833
:103DE000FCD140211E4A13688B431360174A1D49BA
:103DF000936B0B409363174B1B491A680A401A6078
:103E00009A680A409A60DA681140802292030A4355
:103E1000DA60C022186815499205084002431A600A
:103E20009A680A409A60DA680A408021DA601A6863
:103E30000906920092081A609A68920092089A60A5
:103E4000DA6892009208C7E7003001400010024093
:103E5000FFEFFFFF00040050FFFCFFFFFFF3FFFF39
:103E600000380040FFBFFFFFFFFFCFFFFFFFFFCF86
:103E7000030001280CD102220D4B98681042FCD09F
:103E80000122C9B2197399681142FCD0187B70479E
:103E90000020022BFBD1074A90681842FCD0012376
:103EA000C9B2117391681942FCD0107BEFE7C0468C
:103EB000003001400038004007B50422034901A842
:103EC000FCF790F90198FCF733FA07BDCC0300200A
:103ED00010B5FCF75DFA10BD70B505000C00884206
:103EE00007D80134FFF7F4FF611BFEF7CBFB48193D
:103EF00070BDFFF7EDFF291B0131FEF7C3FB081969
:103F0000F6E70000F0B501271A4C85B0636805009C
:103F10000E0001923B421CD003A800F0ABFD164BF3
:103F200003A8E360154BE36000F0A9FD63683B4222
:103F30000FD01349134800F067FD134F380000F00D
:103F400063FD124800F060FD380000F05DFD00F0F8
:103F50009FFD0023019A934205D101236268134318
:103F6000636005B0F0BD0A48F15C5A19121811706F
:103F70000133EFE700200240EFCDAB8905040302D7
:103F8000DD1F0108BD1F01087F220108D21F0108A3
:103F9000000008080B0010B5024941181800FCF792
:103FA00021F910BD0000080810B50F24CBB2090C90
:103FB0008C408840034A9B009B189A68A2430243A6
:103FC0009A6010BD00000140054B8000C35810B539
:103FD000002B04D09A68002A01D05868904710BD81
:103FE000F8030020F7B5F022830192011340A022CC
:103FF000D2059B1801220F27150004113C40A54053
:10400000AC466446124D3840EE6A82402643EE626A
:10401000EC6A65462C400194019C002915D19A62F6
:104020001500854003219C68694320006C0088438B
:1040300020439860586890435860DA688A43DA6091
:104040001A688A432A431A60F7BD9A61E8E7C046B6
:1040500000100240002808D08368002B05D00F22F2
:1040600003781340014A9B0098507047F8030020E2
:10407000F0B58DB00493544B009209AA040061CBB3
:1040800061C2F0200125A022A301800103400F207E
:104090002F00D2059E18221102409740AC464B4A91
:1040A0008900D56A3D43D562D56A05913D400795A3
:1040B000079DE5B2029565460440A540F0680C21D5
:1040C00003902800A040070001900320474306A862
:1040D000401805994158019841430398B84301435A
:1040E000F1603168B94331600099002963D06046BE
:1040F000516B01435163526BA10402400892089A2C
:10410000C02212031140A20818001143002B18D03E
:1041100080226046D200934213D0802202201201F6
:1041200093420ED0C02203201201934209D0802274
:1041300004205201934204D0E0225201934202D162
:104140000520FFF731FF224BE8435A68AA435A6023
:104150001968009A29431960022A1CD0032A21D029
:10416000012A05D1DA680240DA609A6815439D6039
:104170000498FFF76FFFC1220E210298154B9200A1
:10418000084212D0023C012C17D999580902090A99
:10419000995080220EE09A6802409A60DA681543CE
:1041A000DD60E5E79A682A43F7E799580A48014035
:1041B000995020221A600DB0F0BD9958074801406F
:1041C00099504022F6E7C046C4130108001002408F
:1041D0000004014000E100E0FF00FFFFFFFF00FFDF
:1041E0002022034B1A6092181A6040321A607047FE
:1041F00000E100E02022094BDA67BFF34F8FBFF3E5
:104200006F8F9218DA67BFF34F8FBFF36F8F403213
:10421000DA67BFF34F8FBFF36F8F704704E100E0A1
:10422000F022830192011340A022D2059B180F2295
:1042300010400E3A8240002901D19A6270479A617B
:10424000FCE7F022830192011340A022D2059B18C3
:104250000F2210400E3A824018691040801A4342E3
:10426000584170470F23C02210B50E240749034060
:104270005200204204D0023B012B04D9802300E0ED
:1042800020238B5010BD4023FBE7C04600E100E037
:10429000012310B5084C62691A4203D00020636103
:1042A000FFF792FE022362691A4203D00120636184
:1042B000FFF78AFE10BDC04600040140042310B57C
:1042C000084C62691A4203D002206361FFF77CFE4A
:1042D000082362691A4203D003206361FFF774FE6A
:1042E00010BDC0460004014070B5042401252B0018
:1042F000A3400649E0B24A691A40934202D14B6199
:10430000FFF762FE0134102CF1D170BD00040140B2
:1043100070B501252B4A8AB0D36A80202B43D36223
:10432000D36A294C2B400293029BA023DB0519681A
:104330000003214001431960996880262140084309
:104340009860F020596A214C8143080040210143C4
:1043500059621868B60320403043186099681C48B9
:10436000214031439960596A1A4C08408021C900A4
:10437000014380205962516BC00101435163536B6B
:10438000002103401822019304A8019BFBF77CFF46
:10439000E1235B0203930823200003A9079300F0A5
:1043A00045FF63680C4A13402A226360A368934365
:1043B000A36023681D432560E3693342FCD00AB043
:1043C00070BDC04600100240FFFFF3FFFFFFCFFFAC
:1043D000FFF0FFFF00380140FFB7FFFF0121124A45
:1043E00010B513688B431360104A1149536B0B408F
:1043F0005363A023DB0598680E49084098601A684B
:1044000080201140C02212030A431A609C680A49A6
:1044100080030C40204398601A681140C022920328
:104420000A431A6010BDC046003801400010024027
:10443000FFBFFFFFFFFFF3FFFFFFCFFFF0B500233C
:1044400080254027094A4E1EDCB2A14204D84023F1
:10445000D1691942FCD0F0BDD4692C42FCD09E42F7
:1044600000D11762C45C01339462EDE7003801406B
:1044700013B500280FD01B491B4800F0C5FA1B4C90
:10448000200000F0C1FA1A4800F0BEFA200000F047
:10449000BBFA00F0FDFAC321164B89005A581648A2
:1044A00002405A50802292011A608022134B120659
:1044B000996B0A43C0219A639A6B0903D20FD20702
:1044C0000192019ADA6C0A430D49DA64CB680D4A0D
:1044D0001A4080231B0113430022CB600A4B1A6051
:1044E0005A6013BD4B200108BD1F01087F2201083F
:1044F000D21F010800E100E0FF00FFFF00100240B2
:10450000007C0040FFF1FFFF3804002070B50D0073
:10451000140000280FD02449244800F075FA244ED6
:10452000300000F071FA234800F06EFA300000F01D
:104530006BFA00F0ADFAFA220023690DE80292004E
:10454000FEF790F9802301001B4D5B02984200D3D7
:1045500029001A4B05CC05C30120194B9A68024368
:104560009A601A691043186110205A6802435A6011
:104570009A69C24082402A439A611A680242FCD07A
:1045800008245A6822435A605A69120C10040843DE
:1045900058611A682242FCD006211A698A43110028
:1045A00004220A431A6170BD38200108BD1F0108AA
:1045B0007F220108D21F0108FFFF000038040020FD
:1045C000007C004010B500280FD00A490A4800F0CE
:1045D0001BFA0A4C200000F017FA094800F014FA00
:1045E000200000F011FA00F053FA064800F08CFFAA
:1045F00010BDC04626200108BD1F01087F2201080A
:10460000D21F0108007C004010B500280FD00A49D5
:104610000A4800F0F9F90A4C200000F0F5F90948C1
:1046200000F0F2F9200000F0EFF900F031FA8022FA
:10463000054B92011A6010BD0E200108BD1F010834
:104640007F220108D21F010800E100E010B5002818
:104650000FD00C490C4800F0D7F90C4C200000F0AA
:10466000D3F90B4800F0D0F9200000F0CDF900F0AC
:104670000FFA8022074B9201DA67BFF34F8FBFF327
:104680006F8F10BDF51F0108BD1F01087F220108B3
:10469000D21F010804E100E00123074A10B51168A8
:1046A000194208D051680B435360044A5368002BE9
:1046B00001D01068984710BD007C004038040020ED
:1046C0008020294B4005996B82B0014399639A6B16
:1046D00002400192019A8022196DD2020A431A65A2
:1046E000CA22224B5A62773A5A629968333A0A438D
:1046F0009A60012240215242DA60DA680A42FCD014
:104700009A681B488A439A601A691A491140F8222C
:1047100052030A431A611A691749D20BD2030A439A
:104720001A615A6815491140154A0A435A601A68B5
:1047300014490A401A6081225242DA608132FF3203
:104740005A628022104B520319681143196099680C
:104750000A43C0219A600D4B89005A5802405A50B2
:1047600004221A6002B07047001002400028004086
:10477000FFFF00FFFFFF80FFFF030000C00000FFFE
:1047800001210000808080FF0004014000E100E082
:1047900001000620CA22164B48435A62773A5A62F1
:1047A0009A68C0094900411852050BD59A6811480A
:1047B00002409A609A68104802409A600422D868C1
:1047C0001042FCD007209A6882439A605A69120C02
:1047D00010048022084358619968D2000A439A6005
:1047E00080229968D2010A439A60FF225A62704778
:1047F00000280040FFFBFFFFFFBFFFFFCA22064B60
:1048000006495A62773A5A629A680A409A609A68E8
:1048100003490A409A60704700280040FFBFFFFF2D
:10482000FFFBFFFFF0B5384B87B09A6A05929A6A92
:1048300002925A681968986A009105998842F4D1E1
:104840000A200F260327314D314C15402B0D4343D1
:10485000290C31405B182F49DBB2594303318908D9
:104860003B40019159424B412B495B420B402B4944
:1048700012115B18290A8C4600993A400C40E90451
:10488000C90F039161464243314035408C4655196A
:10489000019A013DAD183D2203994143614401391C
:1048A0004A43013294464900CB40D20F6244521031
:1048B0003B40AA18D21A230D3B404343270C3740F4
:1048C000DB19E1273F017B433C27210B314041436A
:1048D000134D6A43250A35404919C9B279435B181B
:1048E000009934404906490F4843001918186B468F
:1048F0001C8900230B4D8218910D90022A1B8018F1
:10490000594107B0F0BDC046002800403FFFFF00FE
:104910007F7F7F00B5050000B0AAAAFFA0AA99007A
:1049200080510100FF03000070B50400FFF77AFF1B
:10493000074B1D68AB0DAA0280185941054B820533
:10494000920D53439B0A2380800A8B05184370BD48
:10495000400400201027000013B56A460023901D74
:10496000D380FFF7E1FF6B4604000A21D888FDF7EA
:1049700003FEFA239B00634380B2C01816BD07B53F
:104980006B46981D00230380FFF7CEFF0EBDFA2172
:10499000020080058900800D4843920A4A43800A3C
:1049A0008018704710B5410E7D220023C001FDF72D
:1049B00059FF10BD084B10B5DA6852050AD5D96801
:1049C000064AC9B20A43DA608022054B52035A6193
:1049D000FFF762F810BDC046002800407FFBFFFFD4
:1049E0000004014000B5C1B00A0001006846FBF7B1
:1049F00005FE002806DD6846FBF7D2FDC1B2684619
:104A0000FFF71CFD41B000BD0FB407B504A901C9F3
:104A10000191FFF7E7FF03B008BC04B0184700009E
:104A200080B584B000AF78607A6813005B019B1A90
:104A30009B009B18DB000B491800FDF727FE0300C5
:104A4000BB600023FB6003E0C046FB680133FB60F2
:104A5000FA68BB689A42F7D3C046C046BD4604B068
:104A600080BDC046310200000122014B1A70704720
:104A70005C040020EFF31083036072B67047036894
:104A800083F31088704772B6704762B670470000B3
:104A900072B6BFF34F8F034B034ADA60BFF34F8FF9
:104AA000C046FDE700ED00E00400FA05714B37B5A4
:104AB000DA6971491202120ADA611A6A0A401A6244
:104AC0001A6A6E491202120A1A6201220B68934393
:104AD00013430B600B68134212D1694C69492500DE
:104AE00020001535FFF790FF2800FFF78DFF20000D
:104AF0001630FFF789FF2800FFF786FFFFF7C8FF92
:104B0000614A62491368624C194080231B010B43C0
:104B10001360012321680B43236004232168194299
:104B2000FCD063685B49194080235B010B436360E1
:104B30000123216D0B4323650223216D1942FCD013
:104B40008020A16B40050143A163A36B0340019347
:104B5000019B802311685B00194311608022216D45
:104B600012030A432265226D4B490A402265226DD9
:104B70001343236580239B00226D1A42FCD0236DD2
:104B8000464A1A4080235B0213432365E368444A84
:104B90001A4088231B041343E360802322685B04CC
:104BA0001343236080239B0422681A42FCD0F02226
:104BB000E3689343E360E3683A4A1340E360E368E1
:104BC000394A13400322E360E3681343E360093288
:104BD000E36813400C2BFBD10425344800F0FAFCA9
:104BE000334A324813682B43136000F003FD03225D
:104BF000E36C9343C022E364E36C12031343E36466
:104C0000FEF760FFFFF784FB00F0F4F928000121B4
:104C1000FFF7E8F9002324201A001900FFF728FA0B
:104C20000122002310000221FFF722FA01211B209C
:104C3000FFF7D8F900211C20FFF7D4F90020FFF777
:104C400017FC1A231E221F210220FEF769FF1323DF
:104C5000142215210120FEF763FFFFF731FDFFF756
:104C60002BF914491448FEF70BFE0022134B1A705F
:104C700037BDC04600ED00E0FFFF00FF002002400E
:104C8000D01301085D20010800700040FFE7FFFF1E
:104C900000100240FFE0FFFFFFFFF7FFFFFFFCFFF8
:104CA000FFFF02FFFFF8FFFFFFC7FFFF0048E8011B
:104CB00010E000E0694A0008440400205C04002081
:104CC0007FB5009000F066FF002800D093E0FEF76B
:104CD0001FFF009B002B00DC8FE001244A49009B52
:104CE0008B4200DC8AE0494A494894466344009379
:104CF000FEF774FE002301930023464A44481370D4
:104D0000FEF7C6FDFFF7BFFE0222434E10003368D8
:104D1000150093433360FFF72DF82000FFF72AF8C2
:104D200000F0DCF9FFF75AFB04213C4A13680B43FF
:104D30001360802310689B00034313601368384896
:104D4000A343234313601368AB43136003690B430E
:104D5000036130BF8025334B6D05986B2843986302
:104D6000986B2840039003982F4D106805408020D1
:104D70000001284310601A6822431A601A680A4228
:104D8000FCD08022196852040A431A6080229204DF
:104D900019681142FCD00321DA680A43DA6009314C
:104DA000DA680A400C2AFBD1FFF7B2FA00F022F9C8
:104DB0001A231E221F210220FEF7B2FE1521200019
:104DC00013231422FEF7ACFE022233681343336030
:104DD000FFF75BFEFEF79CFE0E4B1B78002B03D00B
:104DE000019B002B00D179E70A4B1B78002B02D1E5
:104DF0000748FEF7C5FDFEF78BFE7FBD009904480E
:104E0000FEF7ECFD019477E7204E0000E0B1FFFFD4
:104E1000440400205C04002010E000E0007000402A
:104E200000ED00E000100240FFE7FFFF70470000C8
:104E300070B50C4C2000250021301535FFF7E4FD3E
:104E40002800FFF7E1FD20003030FFF7DDFD2800EE
:104E5000FFF7DAFD20004A30FFF7D6FD2800FFF704
:104E6000D3FDFEE7D013010870B50400FFF774FD11
:104E70000500FFF771FD401BA042FAD370BD000092
:104E8000024B9869C006C00F7047C04600540040EE
:104E9000F0B587B00393524B05921B780D005A1E54
:104EA000934101338026FA2702900493FFF754FDC3
:104EB00036020190FF004B4CA369334207D0FFF745
:104EC0004BFD019BC01AB842F5D9012086E063680A
:104ED000049A454F12043B401343029A01261343A0
:104EE000424A134363603E4B1B78002B2ED1A369CB
:104EF000334212D0EDB2FA26A5624025F600A3692E
:104F00002B4231D1FFF7BCFF00280AD1FFF724FD67
:104F1000019BC01AB042F2D903E0FFF7B1FF0028AD
:104F2000E5D01023E26901201343E3618023626826
:104F3000DB011343636023688343236023680343D7
:104F400023604BE0FFF79CFF0028EAD1A3693342BE
:104F5000F8D001262B0AA362A3693342CAD1FFF716
:104F60008FFF0028F8D0DCE76068029B07401F43F2
:104F7000039B0025180407431D4804260743676068
:104F8000FA27FF00039BAB4214D8FA262025F6002F
:104F9000A3692B421ED1FFF773FF0028C1D1FFF791
:104FA000DBFC019BC01AB042F2D9BAE7FFF768FFF9
:104FB0000028B6D1A369334206D1FFF7CDFC019B8F
:104FC000C01AB842F2D9ACE7626A05996B1C4A551F
:104FD000DDB2D7E70020E3691D43E56107B0F0BD0E
:104FE0005D04002000540040008000FC0020008090
:104FF000002400820220314A30B5D16A8BB00143CF
:10500000D1628021D36A2E4C03400293029B2D4B28
:1050100089011868204001431960C02198688901FE
:10502000204001439960196A2748084080214904BB
:105030000143196240215868884308435860D86882
:1050400020408024D8601D682048240305402C435C
:105050001C60C0249D68240305402C43F0259C60FF
:105060005C6AAC432143802459625968A4002143FF
:105070005960D968164C01408020D960916B80033B
:1050800001439163936B002103401C22019303A809
:10509000019BFBF7F9F80F4B20000493802303A931
:1050A0005B01059300F088F8012322681343002276
:1050B0002360094B1A700BB030BDC046001002408F
:1050C000FFCFFFFF00040050FFFFFFF0FFFFF3FFE3
:1050D00000540040BB7C70005D04002010B50F48F8
:1050E00000F032F80E4A0F49936B0B4093630E4B5E
:1050F0000E499868084098601A681140C0229201D1
:105100000A431A6098680A49084098601A68114072
:10511000C02212030A431A6010BDC046005400406A
:1051200000100240FFFFDFFF00040050FFCFFFFF31
:10513000FFFFF3FF014B18707047C0465D0400206D
:1051400010B5FFF7A5FE10BD144A030090420BD125
:105150008022134B9203996A0A439A629A6A114910
:1051600000200A409A6270470F4A904208D180227C
:105170000B4BD203996A0A439A629A6A0B49EFE78A
:105180000B4A01209342EED18022054BD205996A49
:105190000A439A629A6A0749E2E7C046005400400F
:1051A00000100240FFFFDFFF00580040FFFFBFFF7D
:1051B00000780040FFFFFFBF0122036830B5934332
:1051C0000360CB688D681B0204682B43144D2C4090
:1051D000234303604B68134C036103680D691A4352
:1051E000026083688A692340836083682A43DB0AFC
:1051F000DB021A438260002D04D0802382681B02E8
:10520000134383600268084B1A400B681A4302601C
:1052100043684A69234013434360002030BDC046C1
:10522000FFE0FFFFFF7FFFFFFFFFCFFF30B5036809
:1052300004000D0085B0DB0702D5012005B030BDAC
:105240004B68C96802680B4329690B43A9690B4382
:1052500020490A401343036043681F4A1340AA6869
:105260001343436083681D4A13406A691343836094
:105270001B4B03209C4203D01A4B9C4219D10C209B
:1052800000F0CAF80028D8D029680029D5D080229B
:10529000AD694B081202954217D14000C018FDF7C6
:1052A0006BF9114B03400007400F1843E0600020EA
:1052B000C4E70E4B9C4204D1684600F093F8029874
:1052C000E0E70B4B9C42B8D1F6E7C018FDF754F964
:1052D00080B2EBE7F369FFEFFFCFFFFFFFFCFFFFBB
:1052E0000038014000440040F0FF0000004C004046
:1052F00000500040024B18684007C00F7047C0467E
:1053000000100240024B186D8005C00F7047C04668
:1053100000100240024B1868C006C00F7047C0461C
:1053200000100240034B044ADB681B061B0FD35CD2
:10533000D8407047001002409C1F0108034B044AEC
:10534000DB685B055B0FD35CD84070470010024000
:10535000AC1F01080C2210B51D4CE3681340082B4C
:1053600033D00BD8002B01D0042B22D080206368CF
:1053700000021B045B0F0133984023E00C2BF5D196
:10538000E368DB031FD4FFF7C5FF431E9841114BB1
:1053900040421840104BC018E368104AE1689B0275
:1053A0001B0FD35C0902890F58430131FDF7E4F864
:1053B00008E0FFF7AFFF431E9841064B40421840FC
:1053C000054BC01810BD0648E6E70548FAE7C04699
:1053D0000010024000E548FF0024F400B41F01085B
:1053E00000127A0010B50400FFF7B4FF2060FFF749
:1053F00099FF6060FFF7A2FF054BA060DB68054ADC
:105400009B045B0FD35C6268DA40E26010BDC0466B
:1054100000100240AC1F010810B5032827D1254C0D
:10542000E36C0340C02080021843234B984236D0DF
:10543000224B984209D0224B98420DD1FFF78AFFA8
:1054400010BD0020FCE71F48FAE7FFF75BFF0028CC
:10545000F7D080200002F3E7FFF77CFFFFF762FF41
:10546000E368194A9B045B0FD35CD840E8E70C283B
:10547000E7D1104BDB6C0340C02000031843134BF3
:1054800098420CD0124B9842DFD0124B9842D5D0A4
:10549000FFF760FFFFF746FFFFF750FFD0E7FFF78A
:1054A00029FF0028CDD0FFF735FF0028CBD00A48D0
:1054B000C6E7C046001002400200030003000300DC
:1054C000010003000024F400AC1F010808000C00D8
:1054D0000C000C0004000C0000093D00084A0123E8
:1054E00090420AD18023074A1B06916A0B439362BC
:1054F000936A5B005B089362002318007047C04604
:10550000007C004000100240F0B5040089B072B683
:1055100000232D4F0193B84205D12C4BDA6CC023E8
:105520001B031A400192A36820000293E368666996
:105530000393A569FFF7D2FF04A8FFF753FF3300D9
:105540002B4336D0BC4204D1204A2149D36C0B40B6
:10555000D364002E10D00123226913430822236153
:10556000049B66612168013B114201D1002BF9D1F6
:10557000049363681A436260002D13D001232269EB
:1055800004A813432361A561FFF72CFF1022049B9D
:105590002168013B114201D1002BF9D104936368CA
:1055A0001A436260094A0A49D36C0B4001990B43C4
:1055B000D3640122236993432361029BA360039B6D
:1055C000E36062B609B0F0BD007C0040001002400C
:1055D000FFFFF3FFFA2110B58900FCF7CDFF002291
:1055E000034B013858609A6005321A6010BDC046FE
:1055F00010E000E0014B18607047C04664000020D6
:1056000010B5FFF745FA10BD10B5FFF7B8F910BD9A
:1056100010B5FFF7A1F910BD07B5009201916A46D8
:1056200001000020FEF772FF07BD10B50020FEF755
:10563000C9FF10BD10B5FEF7DDFD0020FFF706F82D
:1056400010BD10B5FEF7CCFD0020FEF7DDFF10BD4C
:1056500010B50C0011001A00052813D8FCF778FFCC
:1056600003070906100D1048FEF794FC10BD0F4803
:10567000FAE780231B01E018F6E7601CFF30F3E730
:105680000B48F1E70B490C48FFF7BEF90B4C200023
:10569000FFF7BAF90A48FFF7B7F92000FFF7B4F9A6
:1056A000FFF7F6F9E2E7C0464B08000032080000B9
:1056B00064080000AF200108BD1F01087F22010817
:1056C000D21F010810B50C0011001A00052813D8CC
:1056D000FCF73EFF03070906100D1048FEF712FC09
:1056E00010BD0F48FAE780231B01E018F6E7601CA5
:1056F000FF30F3E70B48F1E70B490C48FFF784F95B
:105700000B4C2000FFF780F90A48FFF77DF92000D5
:10571000FFF77AF9FFF7BCF9E2E7C0464B08000053
:10572000320800006408000092200108BD1F010833
:105730007F220108D21F010810B50B1CF22901D9E4
:10574000064B1B78064C0100237022780548D2B224
:10575000FAF748FD0123637010BDC04671200108AF
:10576000F41C0020F61C0020014B5878C0B2704792
:10577000F41C00200CB4F0B504000F000021C5B0EB
:105780004AADFB2205A840CD0491FAF77DFD230028
:10579000FF21104A009704A8FAF77CFE04ABC4B2BC
:1057A000C0B22A00181831000395FAF727FF241811
:1057B000E1B204A8FFF7C0FF04A90748FFF724F9E6
:1057C0000648FFF721F9FFF763F945B0F0BC08BCC4
:1057D00002B01847722001087A2001087F220108D0
:1057E00010B5FEF779FB10BD012210B5034B986090
:1057F00018001A705960FEF72DFC10BD60040020DF
:1058000010B50120FEF72EFD10BD70477047002037
:10581000704710B501001C20FEF702FD10BDFF20EF
:10582000704701207047704710B50C4C2178002953
:1058300005D02420FEF705FD0128FAD010BD042074
:10584000FEF7EEFC2420FEF7FCFC0128FAD0012133
:105850000420FEF7E5FC01232370EFE76800002039
:10586000F7B50D001C0008AB1B8816000193FFF76D
:10587000DBFF00210420FEF7D3FC2F007619B7428E
:105880000ED1019BE618B44210D101210420FEF78D
:10589000C7FC2B78842B0FD0FFF7C6FF0020FEBD7E
:1058A00039780220FEF7E4FA0137E8E72178022090
:1058B000FEF7DEFA0134E6E70022014B1A70EDE74D
:1058C00068000020F8B51D0006AB0C0017001E880C
:1058D000FFF7AAFF00210420FEF7A2FCE719BC4253
:1058E00008D1AE19B5420BD101210420FEF798FC76
:1058F0000020F8BD21780220FEF7BAFA0134EEE765
:1059000000210220FEF7B4FA28700135EAE7000012
:1059100010B50A4C00211B20FEF782FC2000FFF787
:105920007FF801211B20FEF77BFC2000FFF778F8B1
:105930000122034B00201A7010BDC04688130000DE
:105940006800002010B5FFF76FFF002010BD012395
:105950000B70704701230B70704770B514000D0079
:1059600000F036F80023EB561818022300B223711A
:10597000013BE3700F2804DC0200113215DB0F2815
:1059800009D1A37000236370063323700833637159
:105990000133A37170BD0E2809D1A3700023637079
:1059A000043323706071A071F4E711204042A370AA
:1059B000002363700433237040B2F3E700230B70BD
:1059C0007047704700230B707047704770470000A6
:1059D0000020014B185670476C0400200D48854686
:1059E0000D480E490E4A002302E0D458C450043337
:1059F000C4188C42F9D30B4A0B4C002301E013600E
:105A00000432A242FBD3FEF75BF8FAF7A5FBFDF7E1
:105A1000C9FBFEE700500020000000202C020020FF
:105A2000884C01082C020020F41C0020FEE770477F
:105A3000F8B514000E001022002105002000FAF72E
:105A400023FC012700223100103608780F280ED8D9
:105A50002B0003413B4204D0235C01320133D2B21C
:105A6000235401318E42F0D10020824200D1022025
:105A7000F8BDF0B589B006930EAB1F780FAB1B785D
:105A8000050007930E00059200F042FD1C23034021
:105A90000420082B02D1F22F02D9022009B0F0BD58
:105AA000731EDBB2DE2B0ED80024079B2800029366
:105AB000069B012200933100059B0394019701F09E
:105AC0009FFF2000EAE7280006F052F80028EBD1FB
:105AD000E3E7000070B5224C0600A36820689847F1
